:030000000209E70B
:0C09E700787FE4F6D8FD758151020A2EDD
:100D7600C0F9A4B0999282F88090119382C6446C0F
:100D860028399988CC44662233111133226644CC23
:020D960088993A
:100DB500010800C102C103C104C105C10101090047
:0B0DC500010A00010B00010C00C1003E
:0B0D1E00900D88EB93F5907F027E00A3
:100D2900E4FDFC758901758CFC758A18D2AFD28CEB
:100D3900308DFD758CFC758A180DBD00010CC28DB6
:090D4900EDB507ECECB506E8225B
:080E9400D2EAD2EB7580FF22C7
:100BE0008E218F22AB07AA06E4C39BFFE49AFE7412
:100BF000019400FDE49400FCE4FB7A01F9F8120C86
:100C00002D8FCD8FCBAE21AF22AB07AA06E4C39BBD
:100C1000FFE49AFE74019400FDE49400FCE4FB7A86
:0D0C200001F9F8120C2DAF038FCC8FCA2202
:0E0E7800D2AFD2AD7F887E13120BE0D2CA2219
:03002B000208A424
:0D08A400C0E0C083C082C0D075D000C00786
:1008B100755000755100C2CFA20092EAA200B39216
:1008C100EB30EA04E50A8002E509900D7693FF8F8B
:1008D10080200019E508B40503750800E5081392A6
:1008E100E8E508A2E192A0A2E292A78049E50814F6
:1008F10060181460201460281460302404703520BE
:10090100A103D38001C39202802A20A203D38001D4
:10091100C39205801F20A303D38001C392038014D7
:1009210020A403D38001C39204800920A503D380AE
:0B09310001C3920105087580FFB200B1
:0B093C00D007D0D0D082D083D0E032B2
:10094700E4F52CF52D7B69F52DE52DC39B400302BE
:1009570009E6E4F52CE52C900D80120D22052CE517
:100967002CC3940840EF30047130036E30013420FB
:100977000231E4F52CE52C900D8893440FF5907F18
:10098700037E00120D29052CE52CC3940840E6AC24
:1009970003E4120130E4FBFAF9783F120035120143
:1009A70064AB07300534200231E4F52CE52C900DBB
:1009B700909344F0F5907F037E00120D29052CE5F6
:1009C7002CC3940840E6AC03E4120130E4FBFAF9C7
:0F09D700783F120035120164AB07052D0209505D
:0109E60022EE
:100E0600E4FAE4FB120D1E0BBB08F90ABA68F3E517
:070E16000B24025403F50B4D
:010E1D0022B2
:100E1E00E4FAE4FB120D1E0BBB08F90ABA34F3E533
:070E2E000B24035403F50B34
:010E3500229A
:100DEC00E4FAE4FB900D90120D210BBB08F60ABA45
:090DFC0034F0E50B045403F50B7F
:010E050022CA
:10061B00E4F521F522F523F524F525F526F527E557
:10062B0027600BE5097007E50A7003020709120E34
:10063B00368F23120E628F21120E4C8F22AB23ADFD
:10064B0021120D52E5217010E50B045403FF120724
:10065B00DEEF70047F0180027F008F24E523700C96
:10066B00AF0B1207DEEF70047F0180027F008F2635
:10067B00E522700A1207D7EF70047F0180027F001A
:10068B008F25752701E5242526FFE433FE7C00EF3B
:10069B002525FFEC3EFEC3EF9402EE648094804070
:1006AB00267400250CF582E43400F583E0B50910BF
:1006BB007414250CF582E43400F583E0650A6007B9
:1006CB00AD0AAF09120D98E5246005120DEC800DF3
:1006DB00E52660028007E5256008120E1E12094709
:1006EB00800612070A02062A120DD1E50B2402120C
:0E06FB000A73AB0AAD09AF0B120AFC02062A05
:0107090022CD
:100DD100E50B14600D14600D14600D2403700B05F8
:0B0DE1000A22050922150A221509222A
:100AFC00EF14602714604114605B24037073EB7572
:100B0C00F008A42428F582E43400F583E5822DF561
:100B1C0082E43583F583E054EFF022EB75F008A402
:100B2C002428F582E43400F583E5822DF582E43542
:100B3C0083F583E054DFF022EB75F008A42428F54C
:100B4C0082E43400F583E5822DF582E43583F58368
:100B5C00E054BFF022EB75F008A42428F582E434AD
:100B6C0000F583E5822DF582E43583F583E0547F2F
:020B7C00F02265
:10070A00E4F528F529E509700EE50A700A120E06C5
:10071A007FE87E03020D297400250CF582E434007B
:10072A00F583E0650970607414250CF582E43400E1
:10073A00F583E0650A7050E50B045403FF1207DEE7
:10074A00EF7006120E62EF60047F0180027F008F55
:10075A002A1207D7EF7006120E4CEF60047F018051
:10076A00027F008F2BAF0B1207DEEF7006120E36D8
:10077A00EF60047F0180027F00E52A604FEF604C42
:10078A00E52B6048020E9CAD0AAF09120C71EF24EA
:10079A00025403F528C3E50B95285403F52960197B
:1007AA0014601814601A240560111460131460048C
:1007BA0024FC7012120DEC800A8008120E1E8003AF
:0C07CA00120E06120947120DD102070F93
:0107D6002200
:100C71007E04ED75F008A42428F582E43400F583A0
:100C8100E5822FF582E43583F583E054F02490600A
:100C91001824C0601024E0600824F0700EE4FE8087
:0D0CA1000A7E0180067E0280027E03AF06FF
:010CAE002223
:0707D700E50B24035403FFAE
:1007DE00EF14603C14606614700302087624036004
:1007EE00030208A1E50AB407037F0122E50A75F0AA
:1007FE0008A42430F582E43400F583E5822509F55A
:10080E0082E43583F583E0B4FF037F00227F01226B
:10081E00E509B407037F0122E50A75F008A424292F
:10082E00F582E43400F583E5822509F582E435830B
:10083E00F583E0B4FF047F0080027F0122E50A7099
:10084E00037F0122E50A75F008A42420F582E43422
:10085E0000F583E5822509F582E43583F583E0B45E
:10086E00FF037F00227F0122E50970037F0122E54D
:10087E000A75F008A42427F582E43400F583E58296
:10088E002509F582E43583F583E0B4FF037F00226A
:06089E007F01227F04220D
:070A73005403FFAB0AAD09BB
:100A7A00EF14602714604114605B24037073EB75F4
:100A8A00F008A42428F582E43400F583E5822DF5E4
:100A9A0082E43583F583E054FEF022EB75F008A476
:100AAA002428F582E43400F583E5822DF582E435C5
:100ABA0083F583E054FDF022EB75F008A42428F5B1
:100ACA0082E43400F583E5822DF582E43583F583EB
:100ADA00E054FBF022EB75F008A42428F582E434F4
:100AEA0000F583E5822DF582E43583F583E054F73A
:020AFA00F022E8
:100D5200AE03AC05EF7007E50B2403120A73EC70C7
:100D620006E50B04120A73EE7009AB0AAD09AF0B6C
:040D7200120A7A22C5
:100E3600E4FB3002037F01227F037E00120D290BA3
:050E4600BB1EEF7F0060
:010E4B002284
:100E4C00E4FB3003037F01227F037E00120D290B8C
:050E5C00BB1EEF7F004A
:010E6100226E
:100E6200E4FB3004037F01227F037E00120D290B75
:050E7200BB1EEF7F0034
:010E77002258
:060CAF008B218A2289233B
:100CB500E4F524E4F525E52475F008A4AB21252306
:100CC500F9E52235F0FA7E00E92525F9EE3AFA74C0
:100CD500FF1202DB0525E525B408DB0524E524B470
:020CE50008D134
:010CE70022EA
:100D9800050C7400250CF582E43400F583EFF0743B
:0D0DA80014250CF582E43400F583EDF022F3
:030E9C00150C2210
:0D0E8600E4FBC2B7120D25D2B70BBB32F54D
:010E9300223C
:10000300EB75F008A42428F582E43400F583E58237
:100013002DF582E43583F583E0FEA807088002C34B
:0700230013D8FC5401FF2279
:1003C900754901E4900068F0F521F522E549D394D7
:1003D900005003020512784A7C007D007B007A00F8
:1003E90079217E007F021202B51549E4F54EE54EEA
:1003F900C395495024E54E75F002A4FF2423F9E47E
:10040900FAFBC00174212FF9E4A801FCFDD001FE1B
:100419007F021202B5054E80D5E4F54FE54FC3942E
:100429000450A9784C7C007D007B007A00794A7ED3
:10043900007F021202B5E54F1460111460151460B3
:10044900192403701AE54B04F54D8013E54A04F5A8
:100459004C800CE54B14F54D8005E54A14F54CE547
:100469004CC39408400302050DE54DC394084003AD
:1004790002050DE54CC39400500302050DE54D94AA
:1004890000500302050DAB4BAD4AAF4F120003EF0D
:100499007072E54D75F008A42468F582E43400F51E
:1004A90083E582254CF582E43583F583E0F47054C5
:1004B900E54B75F008A42468F582E43400F583E57A
:1004C90082254AF582E43583F583E004FFE54D751D
:1004D900F008A42468F582E43400F583E582254C0C
:1004E900F582E43583F583EFF0E54975F002A4243C
:1004F90021F9E4A801FCFDFB7A00794CFE7F021288
:0905090002B50549054F02042565
:0105120022C6
:10051300752207752107E5217007E522700302069E
:100523001AE4F525E525C3940450EB78237C007D7C
:10053300007B007A0079217E007F021202B5E52557
:100543001460111460151460192403701AE5220451
:10055300F5248013E52104F523800CE52214F5240A
:100563008005E52114F523E523C39408400302061F
:1005730015E524C394084003020615E523C394003C
:100583005003020615E52494005003020615AB221E
:10059300AD21AF25120003EF7078E52275F008A4B2
:1005A3002468F582E43400F583E5822521F582E4AD
:1005B3003583F583E014FFE52475F008A42468F57A
:1005C30082E43400F583E5822523F582E43583F55F
:1005D30083E06F703DE52475F008A42428F582E4D8
:1005E3003400F583E5822523F582E43583F583E042
:1005F30044F0F0AB24AD23AF25120AFC78217C0034
:100603007D007B007A0079237E007F021202B5020F
:07061300051905250205276A
:01061A0022BD
:100B7E00E4F521F522F50BF509F50AE509B40706AA
:100B8E00E50A6407604BAD0AAF09120C71EF24023F
:100B9E005403F521C3E50B95215403F52260191476
:100BAE00601814601A240560111460131460042474
:100BBE00FC7012120DEC800A8008120E1E800312B9
:100BCE000E061209477FE87E03120D29120DD18001
:010BDE00AA6C
:010BDF0022F3
:100CE800120E94120E787B017A007928120CAF7BD1
:100CF800017A007968120CAF7FE87E03120D291281
:100D0800061B1203C9120E86120513120E86120B49
:060D18007E120E8680FE33
:10002E000201D0E86480F8E933E83360110460F02F
:10003E00ED33EC337009E8FCE9FDEAFEEBFF220438
:10004E0060DED3EB9FEA9EE99DE8C2E78CF0C2F733
:10005E0095F0400CE8CCF8E9CDF9EACEFAEBCFFBFF
:10006E0012019B85D0F05804700320D5B3E80470BC
:10007E00075002B2D50201DA92D5EC0460F7E4CC57
:10008E00C0E0C398F8603B94186008400DD0E0FBC8
:10009E000201B2E4FBFAC9FC8028E830E406E4C9A8
:1000AE00FBE4CAFCE830E305E4C9CACBFCE854071C
:1000BE006010F8C3E913F9EA13FAEB13FBEC13FC27
:1000CE00D8F130F52FC3E49CFCEF9BFFEE9AFEEDCA
:1000DE0099FDD0E0FBEF4E4D4C701222DB03020176
:1000EE00D7EC2CFCEF33FFEE33FEED33FDED30E7B6
:1000FE00EB0201B2EF2BFFEE3AFEED39FDD0E0FB45
:10010E0050130BBB00030201DAED13FDEE13FEEFED
:08011E0013FFEC13FC0201B217
:1001260075F020800E75F010800575F0087D007E54
:10013600007F003392D530D5031202EDEC33401028
:10014600EF33FFEE33FEED33FDEC33FCD5F0ED225D
:0E015600E5F0247EA2D513CC92E7CDCEFF2299
:10016400EDD2E7CD33EC3392D524814006E4FFFE93
:10017400FDFC22FCE4CFCECDCC24E0501174FF80F2
:10018400EDC3CC13CCCD13CDCE13CECF13CF04708F
:07019400F030D5DE0202EDA0
:10019B00E9D2E7C933E833F892D5EDD2E7CD33ECAA
:0701AB0033FC5002B2D52223
:1001B200EC30E7100FBF000C0EBE00080DBD0004AE
:1001C2000BEB6014A2D5EB13FCED92E7FD2274FF5A
:1001D200FCFDFEFF22E480F8A2D574FF13FC7D80B3
:0301E200E480EFC7
:1009F300020CE8E493A3F8E493A34003F68001F226
:100A030008DFF48029E493A3F85407240CC8C33304
:100A1300C4540F4420C8834004F456800146F6DFD3
:100A2300E4800B0102040810204080900DB5E47EA1
:100A3300019360BCA3FF543F30E509541FFEE493C8
:100A4300A360010ECF54C025E060A840B8E493A38F
:100A5300FAE493A3F8E493A3C8C582C8CAC583CABA
:100A6300F0A3C8C582C8CAC583CADFE9DEE780BE72
:010DD0000022
:1001E500E709F608DFFA8046E709F208DFFA803EFC
:1001F50088828C83E709F0A3DFFA8032E309F608E9
:10020500DFFA8078E309F208DFFA807088828C8350
:10021500E309F0A3DFFA806489828A83E0A3F60804
:10022500DFFA805889828A83E0A3F208DFFA804CDE
:1002350080D280FA80C680D4806980F280338010B5
:1002450080A680EA809A80A880DA80E280CA80331E
:1002550089828A83ECFAE493A3C8C582C8CCC58396
:10026500CCF0A3C8C582C8CCC583CCDFE9DEE78066
:100275000D89828A83E493A3F608DFF9ECFAA9F0E5
:10028500EDFB2289828A83ECFAE0A3C8C582C8CC3B
:10029500C583CCF0A3C8C582C8CCC583CCDFEADE54
:1002A500E880DB89828A83E493A3F208DFF980CCB6
:1002B50088F0EF60010E4E60C388F0ED2402B404AF
:1002C5000050B9F582EB2402B4040050AF23234556
:0602D50082239002357344
:1002DB00BB010689828A83F0225002F722BBFE0102
:0202EB00F322FC
:100C2D00C2D5E830E70FB2D5E4C39BFBE49AFAE4F2
:100C3D0099F9E498F8EC30E717B2D5120C6312036A
:100C4D0037E4C39BFBE49AFAE499F9E498F880033E
:100C5D0012033730D50DE4C39FFFE49EFEE49DFDE6
:040C6D00E49CFC22E5
:0E02ED00C3E49FFFE49EFEE49DFDE49CFC2222
:1002FB0075F008758200EF2FFFEE33FECD33CDCCBA
:10030B0033CCC58233C5829BED9AEC99E58298403C
:10031B000CF582EE9BFEED9AFDEC99FC0FD5F0D619
:10032B00E4CEFBE4CDFAE4CCF9A88222B800C1B943
:10033B000059BA002DEC8BF084CFCECDFCE5F0CB81
:10034B00F97818EF2FFFEE33FEED33FDEC33FCEBBA
:10035B0033FB10D703994004EB99FB0FD8E5E4F975
:10036B00FA227818EF2FFFEE33FEED33FDEC33FC62
:10037B00C933C910D7059BE99A4007EC9BFCE99A56
:10038B00F90FD8E0E4C9FAE4CCFB2275F010EF2F9B
:10039B00FFEE33FEED33FDCC33CCC833C810D7079B
:1003AB009BEC9AE899400AED9BFDEC9AFCE899F8D6
:0E03BB000FD5F0DAE4CDFBE4CCFAE4C8F92269
:00000001FF
