:03000000020AAB46
:0C0AAB00787FE4F6D8FD758146020AF25F
:100D3E00C0F9A4B0999282F81133226644CC8899F6
:100D4E009988CC4466223311119382C6446C28399B
:100D5E009183C246642C381901030206040C08095B
:080D6E009080C04060203010AD
:100E3600022B00000221000002250000022900000A
:0E0E4600022D00000245000002230000C10042
:100EA600EF1F70011E144E600B007D027CC7DCFE36
:040EB600DDFC80ECF3
:010EBA002215
:100E0D0074462538F582740D3537F583E493F590E6
:040E1D007F037E00D1
:100E2100EF1F70011E144E600B007D027CC7DCFEBB
:040E3100DDFC80EC78
:010E3500229A
:100EBB00D2EBC2EAEF900D3E93F5807F057E0002E8
:020ECB000EA671
:100ECD00C2EBD2EAEF900D3E93F5807F057E0002D6
:020EDD000EA65F
:100C3A008E088F09AB07AA06E4C39BFFE49AFE74E9
:100C4A00019400FDE49400FCE4FB7A01F9F8120C2B
:100C5A00878FCD8FCBAE08AF09AB07AA06E4C39B3B
:100C6A00FFE49AFE74019400FDE49400FCE4FB7A2C
:0D0C7A0001F9F8120C87AF038FCC8FCA224E
:0C0EF000D2AD7F107E27120C3AD2CA222D
:100BBC00E4FBFA20E9050BBB00010A7F327E001230
:100BCC000EA67C007D05AF03AE02120800EC70503F
:100BDC00ED14601A14602414602E14603824047010
:100BEC003F7F01120EBB85252185262280327F0294
:100BFC00120EBB85452185462280257F03120EBB34
:100C0C00852921852A2280187F04120EBB852D216F
:100C1C00852E22800B7F05120EBB85232185242275
:0E0C2C00AF22120ECD7F327E00120EA6808502
:100A0600E4F539F53AE546B52428E545B52323E46A
:100A1600F537F538745E2538F582740D120E150516
:100A260038E53870020537C39408E537940040E48A
:100A3600805EE524640145237028E546454570221D
:100A4600F537F538746E2538F582740D120E1505D6
:100A560038E53870020537C39408E537940040E45A
:100A6600802EE52445237028E5466401454570201F
:100A7600F537F53874662538F582740D120E1505AE
:100A860038E53870020537C39408E537940040E42A
:100A9600053AE53A70020539C3946EE5399400507B
:050AA60003020A0B220F
:100D0600E4F539F53AE4F537F538744E2538F582C9
:100D1600740D120E150538E53870020537C39408B0
:100D2600E537940040E4053AE53A70020539C39484
:080D360037E539940040CE229C
:100DAD00E4F53BF53CE4F537F538120E0D0538E565
:100DBD003870020537C39408E537940040EC053CC4
:100DCD00E53C7002053BC39437E53B940040D622C9
:100DDD00E4F535F536E4F537F538120E0D0538E541
:100DED003870020537C39408E537940040EC05369A
:100DFD00E53670020535C394AEE535941F40D62215
:100E5500120DAD120A06E5282401FFE43527FE7CB4
:0B0E6500007D041208008C278D28225D
:100E7000120D06120A06E5282403FFE43527FE7C3E
:0B0E8000007D041208008C278D282242
:100E8B00120DDD120A06E5282402FFE43527FE7C4D
:0B0E9B00007D041208008C278D282227
:100D7600E5277032E52814601314601914601F24E7
:100D86000370230544E544701D0543220542E542F0
:100D96007014054122E5441544700B154322E542C3
:070DA6001542700215412205
:100CCB007FF47E01120EA6E52E452D7003020E5504
:100CDB00E52E6401452D7009E52645257003020AB2
:100CEB0006E52E6401452D7011E52664014525703E
:0B0CFB0009E52A45297003120D0622AE
:100B3700E4F52FF5307FF47E01120EA6E526452554
:100B47007005120A068067E526640145257013E5DE
:100B57002A4529700DE52E6401452D7005120D06F5
:100B6700804CE526640145257010E52E452D700A59
:100B7700E52A6401452970028031E526640145258F
:100B87007015E52A64014529700DE52E6401452D90
:100B97007005120DDD8017E52664014525700FE508
:100BA7002A45297009E52E452D7003120DAD7F6486
:050BB7007E00020EA605
:100EDF00438911D2AFD2ABD2A9120EF0120BBC8044
:010EEF00FB07
:03002B000209596E
:04095900C0E0C0D06A
:10095D00C2CF200011E52C1392E8E52CA2E192A064
:10096D00A2E292A7807BE52B706FE52C146020141A
:10097D0060301460401460502404705D20A108752F
:10098D0025007526018052752500752600804A20A8
:10099D00A208754500754601803F754500754600F6
:1009AD00803720A308752900752A01802C75290030
:1009BD00752A00802420A408752D00752E0180193C
:1009CD00752D00752E00801120A508752300752446
:1009DD00018006752300752400052CE52C70020599
:1009ED002BB200E52C6405452B7007200004F52B78
:0409FD00F52CB2B073
:050A0100D0D0D0E0326E
:100AB700020EDFE493A3F8E493A34003F68001F268
:100AC70008DFF48029E493A3F85407240CC8C33340
:100AD700C4540F4420C8834004F456800146F6DF0F
:100AE700E4800B0102040810204080900E36E47E5B
:100AF700019360BCA3FF543F30E509541FFEE49304
:100B0700A360010ECF54C025E060A840B8E493A3CA
:100B1700FAE493A3F8E493A3C8C582C8CAC583CAF5
:100B2700F0A3C8C582C8CAC583CADFE9DEE780BEAD
:010E5400009D
:10080000C2D5EC30E709B2D5E4C39DFDE49CFCEE13
:1008100030E715B2D5E4C39FFFE49EFE120836C34D
:10082000E49DFDE49CFC800312083630D507C3E448
:060830009FFFE49EFE2282
:100C8700C2D5E830E70FB2D5E4C39BFBE49AFAE498
:100C970099F9E498F8EC30E717B2D5120CBD1208B1
:100CA700C7E4C39BFBE49AFAE499F9E498F8800354
:100CB7001208C730D50DE4C39FFFE49EFEE49DFDF7
:040CC700E49CFC228B
:10083600BC000BBE0029EF8DF084FFADF022E4CCA6
:10084600F875F008EF2FFFEE33FEEC33FCEE9DEC6F
:10085600984005FCEE9DFE0FD5F0E9E4CEFD22EDB5
:10086600F8F5F0EE8420D21CFEADF075F008EF2FFF
:10087600FFED33FD4007985006D5F0F222C398FDF0
:050886000FD5F0EA228D
:10088B0075F008758200EF2FFFEE33FECD33CDCC24
:10089B0033CCC58233C5829BED9AEC99E5829840A7
:1008AB000CF582EE9BFEED9AFDEC99FC0FD5F0D684
:1008BB00E4CEFBE4CDFAE4CCF9A88222B800C1B9AE
:1008CB000059BA002DEC8BF084CFCECDFCE5F0CBEC
:1008DB00F97818EF2FFFEE33FEED33FDEC33FCEB25
:1008EB0033FB10D703994004EB99FB0FD8E5E4F9E0
:1008FB00FA227818EF2FFFEE33FEED33FDEC33FCCD
:10090B00C933C910D7059BE99A4007EC9BFCE99AC0
:10091B00F90FD8E0E4C9FAE4CCFB2275F010EF2F05
:10092B00FFEE33FEED33FDCC33CCC833C810D70705
:10093B009BEC9AE899400AED9BFDEC9AFCE899F840
:0E094B000FD5F0DAE4CDFBE4CCFAE4C8F922D3
:00000001FF
