:030000000201A852
:0C01A800787FE4F6D8FD7581200201EF9D
:10032200C0F9A4B0999282F880901133226644CC2D
:100332008899119988CC446622331139286C44C6B5
:0A0342008293119382C6446C28399F
:06002100C10041000000D7
:08034C00EB93F5907F037E00A6
:10035400EF1F70011E144E600B007D027CC7DCFE93
:04036400DDFC80EC50
:010368002272
:10023400900002EEF0A3EFF0FBE4C39BFFE49EFE0C
:1002440074019400FDE49400FCE4FB7A01F9F812D3
:1002540002828FCD8FCB900002E0FEA3E0FBE4C3CB
:100264009BFFE49EFE74019400FDE49400FCE4FB17
:0E0274007A01F9F8120282AF038FCC8FCA22F2
:10000300D2EAC2EBEF75F00A84E5F090032293F590
:0E00130080C2EAD2EBEF75F00A8493F58022EA
:0E038200D2AFD2AD7F887E13120234D2CA22CF
:0C039000C2B77F647E00120354D2B72273
:1002F500300115E4FAE4FB90034412034C0BEBB414
:1003050008F50AEAB46BEE22E4FAE4FB90033C122A
:0C031500034C0BEBB408F50AEAB46BEEE5
:0103210022B9
:1002C600300116E4FAE4FBEB90033412034D0BEB1A
:1002D600B408F40AEAB432ED22E4FAE4FBEB900344
:0E02E6002C12034D0BEBB408F40AEAB432ED0F
:0102F40022E7
:10036900C2011202F5D2011202F5C2011202C6D26D
:09037900011202C612038280FE8B
:03002B000200FCD4
:1000FC00C0E0C0F0C083C082C0D075D000C004C0C6
:10010C0005C006C007C2CF900000E0B40605200071
:10011C0002E4F0200013900000E0FF1392E8EFA23D
:10012C00E192A0A2E292A7805E900000E014601A17
:10013C0014602414602E1460382404704420A141EF
:10014C001203909000017401803220A234120390AB
:10015C009000017402802520A327120390900001C7
:10016C007403801820A41A12039090000174048068
:10017C000B20A50D1203909000017405F0FF1200E6
:10018C0003900000E004F0B200D007D006D005D0F8
:0C019C0004D0D0D082D083D0F0D0E0326C
:1001B400020369E493A3F8E493A34003F68001F2F5
:1001C40008DFF48029E493A3F85407240CC8C3334C
:1001D400C4540F4420C8834004F456800146F6DF1B
:1001E400E4800B0102040810204080900021E47E8A
:1001F400019360BCA3FF543F30E509541FFEE49310
:10020400A360010ECF54C025E060A840B8E493A3D6
:10021400FAE493A3F8E493A3C8C582C8CAC583CA01
:10022400F0A3C8C582C8CAC583CADFE9DEE780BEB9
:0100270000D8
:10028200C2D5E830E70FB2D5E4C39BFBE49AFAE4A7
:1002920099F9E498F8EC30E717B2D51202B81200D7
:1002A2006AE4C39BFBE49AFAE499F9E498F88003C0
:1002B20012006A30D50DE4C39FFFE49EFEE49DFD6B
:0402C200E49CFC229A
:10002E0075F008758200EF2FFFEE33FECD33CDCC89
:10003E0033CCC58233C5829BED9AEC99E58298400C
:10004E000CF582EE9BFEED9AFDEC99FC0FD5F0D6E9
:10005E00E4CEFBE4CDFAE4CCF9A88222B800C1B913
:10006E000059BA002DEC8BF084CFCECDFCE5F0CB51
:10007E00F97818EF2FFFEE33FEED33FDEC33FCEB8A
:10008E0033FB10D703994004EB99FB0FD8E5E4F945
:10009E00FA227818EF2FFFEE33FEED33FDEC33FC32
:1000AE00C933C910D7059BE99A4007EC9BFCE99A26
:1000BE00F90FD8E0E4C9FAE4CCFB2275F010EF2F6B
:1000CE00FFEE33FEED33FDCC33CCC833C810D7076B
:1000DE009BEC9AE899400AED9BFDEC9AFCE899F8A6
:0E00EE000FD5F0DAE4CDFBE4CCFAE4C8F92239
:00000001FF
